{
  "abi": [
    {
      "inputs": [
        {
          "internalType": "uint256",
          "name": "_companyId",
          "type": "uint256"
        }
      ],
      "stateMutability": "nonpayable",
      "type": "constructor"
    },
    {
      "anonymous": false,
      "inputs": [
        {
          "indexed": false,
          "internalType": "uint256",
          "name": "company_id",
          "type": "uint256"
        },
        {
          "indexed": false,
          "internalType": "string",
          "name": "name",
          "type": "string"
        },
        {
          "indexed": false,
          "internalType": "address",
          "name": "owner",
          "type": "address"
        }
      ],
      "name": "CompanyCreated",
      "type": "event"
    },
    {
      "anonymous": false,
      "inputs": [
        {
          "indexed": false,
          "internalType": "uint256",
          "name": "company_id",
          "type": "uint256"
        },
        {
          "indexed": false,
          "internalType": "address",
          "name": "employee",
          "type": "address"
        }
      ],
      "name": "EmployeeAdded",
      "type": "event"
    },
    {
      "anonymous": false,
      "inputs": [
        {
          "indexed": false,
          "internalType": "uint256",
          "name": "company_id",
          "type": "uint256"
        },
        {
          "indexed": false,
          "internalType": "address",
          "name": "employee",
          "type": "address"
        },
        {
          "indexed": false,
          "internalType": "string",
          "name": "mina_signature",
          "type": "string"
        }
      ],
      "name": "EmployeeConfirmed",
      "type": "event"
    },
    {
      "inputs": [
        {
          "internalType": "uint256",
          "name": "company_id",
          "type": "uint256"
        },
        {
          "internalType": "address",
          "name": "employee",
          "type": "address"
        }
      ],
      "name": "addEmployee",
      "outputs": [],
      "stateMutability": "nonpayable",
      "type": "function"
    },
    {
      "inputs": [
        {
          "internalType": "uint256",
          "name": "company_id",
          "type": "uint256"
        },
        {
          "internalType": "string",
          "name": "mina_signature",
          "type": "string"
        }
      ],
      "name": "confirm",
      "outputs": [],
      "stateMutability": "nonpayable",
      "type": "function"
    },
    {
      "inputs": [
        {
          "internalType": "string",
          "name": "name",
          "type": "string"
        }
      ],
      "name": "createCompany",
      "outputs": [
        {
          "internalType": "uint256",
          "name": "_companyId",
          "type": "uint256"
        }
      ],
      "stateMutability": "nonpayable",
      "type": "function"
    },
    {
      "inputs": [
        {
          "internalType": "uint256",
          "name": "company_id",
          "type": "uint256"
        }
      ],
      "name": "getCompanyName",
      "outputs": [
        {
          "internalType": "string",
          "name": "name",
          "type": "string"
        }
      ],
      "stateMutability": "view",
      "type": "function"
    },
    {
      "inputs": [
        {
          "internalType": "uint256",
          "name": "company_id",
          "type": "uint256"
        },
        {
          "internalType": "address",
          "name": "employee",
          "type": "address"
        }
      ],
      "name": "getEmployee",
      "outputs": [
        {
          "components": [
            {
              "internalType": "address",
              "name": "eth_addr",
              "type": "address"
            },
            {
              "internalType": "string",
              "name": "mina_signature",
              "type": "string"
            },
            {
              "internalType": "enum Link.EmployeeState",
              "name": "state",
              "type": "uint8"
            }
          ],
          "internalType": "struct Link.EmployeeRecord",
          "name": "e",
          "type": "tuple"
        }
      ],
      "stateMutability": "view",
      "type": "function"
    }
  ],
  "bytecode": {
    "object": "0x608060405234801561001057600080fd5b50604051610c46380380610c4683398101604081905261002f91610037565b600155610050565b60006020828403121561004957600080fd5b5051919050565b610be78061005f6000396000f3fe608060405234801561001057600080fd5b50600436106100575760003560e01c806321340f831461005c57806328075afd1461008557806341d3a5031461009a5780637cc5db65146100ad578063fd7f611e146100cd575b600080fd5b61006f61006a366004610756565b6100ee565b60405161007c91906107ee565b60405180910390f35b610098610093366004610851565b61020a565b005b6100986100a8366004610756565b61041d565b6100c06100bb3660046108cd565b610530565b60405161007c91906108e6565b6100e06100db366004610916565b6105d2565b60405190815260200161007c565b6100f661071c565b6000838152600260209081526040808320546001600160a01b03908116808552848452828520878316865284529382902082516060810190935280549091168252600181018054929391929184019161014e906109c7565b80601f016020809104026020016040519081016040528092919081815260200182805461017a906109c7565b80156101c75780601f1061019c576101008083540402835291602001916101c7565b820191906000526020600020905b8154815290600101906020018083116101aa57829003601f168201915b505050918352505060028281015460209092019160ff16908111156101ee576101ee6107d8565b60028111156101ff576101ff6107d8565b905250949350505050565b6000838152600260209081526040808320546001600160a01b0390811680855284845282852033865284528285208351606081019094528054909216835260018201805491959484019161025d906109c7565b80601f0160208091040260200160405190810160405280929190818152602001828054610289906109c7565b80156102d65780601f106102ab576101008083540402835291602001916102d6565b820191906000526020600020905b8154815290600101906020018083116102b957829003601f168201915b505050918352505060028281015460209092019160ff16908111156102fd576102fd6107d8565b600281111561030e5761030e6107d8565b81525050905083838080601f0160208091040260200160405190810160405280939291908181526020018383808284376000920191909152505050506020820152600260408201819052506001600160a01b038281166000908152602081815260408083203384528252909120835181546001600160a01b031916931692909217825582015182919060018201906103a69082610a52565b5060408201518160020160006101000a81548160ff021916908360028111156103d1576103d16107d8565b02179055509050507fb2873bd677e590f5c380a23e6b171d09113cfc8ae1fd8dc6b34fe5c792b18c928533868660405161040e9493929190610b12565b60405180910390a15050505050565b604080516060810182526001600160a01b0383811680835283518085018552600c81526b6e6f207369676e617475726560a01b602080830191909152808501918252600185870181905260008981526002835287812054861680825281845288822095825294909252959020845181546001600160a01b031916941693909317835551929390928492918201906104b49082610a52565b5060408201518160020160006101000a81548160ff021916908360028111156104df576104df6107d8565b021790555050600154604080519182526001600160a01b03861660208301527f40ff9d12272bfe4858e50671fc7f95e46d1040416ae78d20b8d6a3890c4f240e92500160405180910390a150505050565b600081815260036020526040902080546060919061054d906109c7565b80601f0160208091040260200160405190810160405280929190818152602001828054610579906109c7565b80156105c65780601f1061059b576101008083540402835291602001916105c6565b820191906000526020600020905b8154815290600101906020018083116105a957829003601f168201915b50505050509050919050565b60018054600091826105e383610b59565b909155505060018054600090815260026020908152604080832080546001600160a01b03191633179055925482526003905220806106218482610a52565b50604080516060810182523380825282518084018452600c81526b6e6f207369676e617475726560a01b60208083019190915280840191825260028486015260009283528281528483209052929020815181546001600160a01b0319166001600160a01b0390911617815591519091829160018201906106a19082610a52565b5060408201518160020160006101000a81548160ff021916908360028111156106cc576106cc6107d8565b02179055509050507ff6a220697408fddd552172c86396a753921513c9ca6a4e1a7c1a7d8e61b81494600154853360405161070993929190610b80565b60405180910390a1505060015492915050565b604051806060016040528060006001600160a01b031681526020016060815260200160006002811115610751576107516107d8565b905290565b6000806040838503121561076957600080fd5b8235915060208301356001600160a01b038116811461078757600080fd5b809150509250929050565b6000815180845260005b818110156107b85760208185018101518683018201520161079c565b506000602082860101526020601f19601f83011685010191505092915050565b634e487b7160e01b600052602160045260246000fd5b602080825282516001600160a01b0316828201528201516060604083015260009061081c6080840182610792565b905060408401516003811061084157634e487b7160e01b600052602160045260246000fd5b6060939093019290925250919050565b60008060006040848603121561086657600080fd5b83359250602084013567ffffffffffffffff8082111561088557600080fd5b818601915086601f83011261089957600080fd5b8135818111156108a857600080fd5b8760208285010111156108ba57600080fd5b6020830194508093505050509250925092565b6000602082840312156108df57600080fd5b5035919050565b6020815260006108f96020830184610792565b9392505050565b634e487b7160e01b600052604160045260246000fd5b60006020828403121561092857600080fd5b813567ffffffffffffffff8082111561094057600080fd5b818401915084601f83011261095457600080fd5b81358181111561096657610966610900565b604051601f8201601f19908116603f0116810190838211818310171561098e5761098e610900565b816040528281528760208487010111156109a757600080fd5b826020860160208301376000928101602001929092525095945050505050565b600181811c908216806109db57607f821691505b6020821081036109fb57634e487b7160e01b600052602260045260246000fd5b50919050565b601f821115610a4d576000816000526020600020601f850160051c81016020861015610a2a5750805b601f850160051c820191505b81811015610a4957828155600101610a36565b5050505b505050565b815167ffffffffffffffff811115610a6c57610a6c610900565b610a8081610a7a84546109c7565b84610a01565b602080601f831160018114610ab55760008415610a9d5750858301515b600019600386901b1c1916600185901b178555610a49565b600085815260208120601f198616915b82811015610ae457888601518255948401946001909101908401610ac5565b5085821015610b025787850151600019600388901b60f8161c191681555b5050505050600190811b01905550565b8481526001600160a01b03841660208201526060604082018190528101829052818360808301376000818301608090810191909152601f909201601f191601019392505050565b600060018201610b7957634e487b7160e01b600052601160045260246000fd5b5060010190565b838152606060208201526000610b996060830185610792565b905060018060a01b038316604083015294935050505056fea2646970667358221220c91ba638b8662cf17ba52f7d4fec870484a2d615ba7f41476d43f17bc158548f64736f6c63430008170033",
    "linkReferences": {}
  },
  "methodIdentifiers": {
    "addEmployee(uint256,address)": "41d3a503",
    "confirm(uint256,string)": "28075afd",
    "createCompany(string)": "fd7f611e",
    "getCompanyName(uint256)": "7cc5db65",
    "getEmployee(uint256,address)": "21340f83"
  },
  "id": 20
}